{
  "contractName": "Trading",
  "abi": [
    {
      "anonymous": false,
      "inputs": [
        {
          "indexed": false,
          "internalType": "uint256",
          "name": "",
          "type": "uint256"
        }
      ],
      "name": "logger",
      "type": "event"
    },
    {
      "anonymous": false,
      "inputs": [
        {
          "indexed": false,
          "internalType": "bool",
          "name": "",
          "type": "bool"
        }
      ],
      "name": "logger",
      "type": "event"
    },
    {
      "anonymous": false,
      "inputs": [
        {
          "indexed": false,
          "internalType": "address",
          "name": "",
          "type": "address"
        }
      ],
      "name": "logger",
      "type": "event"
    },
    {
      "constant": true,
      "inputs": [
        {
          "internalType": "address",
          "name": "",
          "type": "address"
        }
      ],
      "name": "contestForTraders",
      "outputs": [
        {
          "internalType": "uint256",
          "name": "",
          "type": "uint256"
        }
      ],
      "payable": false,
      "stateMutability": "view",
      "type": "function"
    },
    {
      "constant": true,
      "inputs": [
        {
          "internalType": "address",
          "name": "",
          "type": "address"
        }
      ],
      "name": "tradesInfos",
      "outputs": [
        {
          "internalType": "uint256",
          "name": "wallet",
          "type": "uint256"
        },
        {
          "internalType": "uint256",
          "name": "ethers",
          "type": "uint256"
        }
      ],
      "payable": false,
      "stateMutability": "view",
      "type": "function"
    },
    {
      "constant": false,
      "inputs": [
        {
          "internalType": "uint256",
          "name": "_contestId",
          "type": "uint256"
        }
      ],
      "name": "joinContest",
      "outputs": [
        {
          "internalType": "uint256",
          "name": "",
          "type": "uint256"
        },
        {
          "internalType": "uint256",
          "name": "",
          "type": "uint256"
        },
        {
          "internalType": "address",
          "name": "",
          "type": "address"
        },
        {
          "internalType": "bool",
          "name": "",
          "type": "bool"
        }
      ],
      "payable": true,
      "stateMutability": "payable",
      "type": "function"
    },
    {
      "constant": true,
      "inputs": [
        {
          "internalType": "uint256",
          "name": "_contestId",
          "type": "uint256"
        }
      ],
      "name": "getContest",
      "outputs": [
        {
          "internalType": "uint256",
          "name": "",
          "type": "uint256"
        },
        {
          "internalType": "uint256",
          "name": "",
          "type": "uint256"
        },
        {
          "internalType": "uint256",
          "name": "",
          "type": "uint256"
        }
      ],
      "payable": false,
      "stateMutability": "view",
      "type": "function"
    },
    {
      "constant": true,
      "inputs": [
        {
          "internalType": "uint256",
          "name": "_contestId",
          "type": "uint256"
        }
      ],
      "name": "getPlayers",
      "outputs": [
        {
          "internalType": "address[]",
          "name": "",
          "type": "address[]"
        }
      ],
      "payable": false,
      "stateMutability": "view",
      "type": "function"
    },
    {
      "constant": true,
      "inputs": [
        {
          "internalType": "address",
          "name": "_a",
          "type": "address"
        }
      ],
      "name": "getTraderWallet",
      "outputs": [
        {
          "internalType": "uint256",
          "name": "",
          "type": "uint256"
        },
        {
          "internalType": "uint256",
          "name": "",
          "type": "uint256"
        }
      ],
      "payable": false,
      "stateMutability": "view",
      "type": "function"
    },
    {
      "constant": false,
      "inputs": [
        {
          "internalType": "address payable",
          "name": "_winner",
          "type": "address"
        }
      ],
      "name": "getPrize",
      "outputs": [],
      "payable": false,
      "stateMutability": "nonpayable",
      "type": "function"
    },
    {
      "constant": true,
      "inputs": [],
      "name": "getAddress",
      "outputs": [
        {
          "internalType": "uint256",
          "name": "",
          "type": "uint256"
        }
      ],
      "payable": false,
      "stateMutability": "view",
      "type": "function"
    },
    {
      "constant": true,
      "inputs": [
        {
          "internalType": "uint256",
          "name": "_contestId",
          "type": "uint256"
        }
      ],
      "name": "getWinner",
      "outputs": [
        {
          "internalType": "address",
          "name": "",
          "type": "address"
        }
      ],
      "payable": false,
      "stateMutability": "view",
      "type": "function"
    },
    {
      "constant": true,
      "inputs": [
        {
          "internalType": "uint256",
          "name": "_contestId",
          "type": "uint256"
        }
      ],
      "name": "getTotalPlayers",
      "outputs": [
        {
          "internalType": "uint256",
          "name": "",
          "type": "uint256"
        }
      ],
      "payable": false,
      "stateMutability": "view",
      "type": "function"
    },
    {
      "constant": false,
      "inputs": [
        {
          "internalType": "uint256",
          "name": "_amount",
          "type": "uint256"
        },
        {
          "internalType": "uint256",
          "name": "_contestId",
          "type": "uint256"
        },
        {
          "internalType": "bool",
          "name": "buying",
          "type": "bool"
        }
      ],
      "name": "trade",
      "outputs": [
        {
          "internalType": "uint256",
          "name": "",
          "type": "uint256"
        },
        {
          "internalType": "uint256",
          "name": "",
          "type": "uint256"
        },
        {
          "internalType": "address",
          "name": "",
          "type": "address"
        }
      ],
      "payable": false,
      "stateMutability": "nonpayable",
      "type": "function"
    },
    {
      "constant": false,
      "inputs": [
        {
          "internalType": "uint256",
          "name": "_contestId",
          "type": "uint256"
        },
        {
          "internalType": "uint256",
          "name": "_end",
          "type": "uint256"
        }
      ],
      "name": "setRoomEnd",
      "outputs": [
        {
          "internalType": "uint256",
          "name": "",
          "type": "uint256"
        },
        {
          "internalType": "uint256",
          "name": "",
          "type": "uint256"
        },
        {
          "internalType": "uint256",
          "name": "",
          "type": "uint256"
        }
      ],
      "payable": false,
      "stateMutability": "nonpayable",
      "type": "function"
    },
    {
      "constant": true,
      "inputs": [],
      "name": "getCurrencyPrice",
      "outputs": [
        {
          "internalType": "uint256",
          "name": "",
          "type": "uint256"
        }
      ],
      "payable": false,
      "stateMutability": "view",
      "type": "function"
    },
    {
      "constant": true,
      "inputs": [],
      "name": "getEtherPrice",
      "outputs": [
        {
          "internalType": "uint256",
          "name": "",
          "type": "uint256"
        }
      ],
      "payable": false,
      "stateMutability": "view",
      "type": "function"
    },
    {
      "constant": true,
      "inputs": [],
      "name": "getPrice",
      "outputs": [
        {
          "internalType": "uint256",
          "name": "",
          "type": "uint256"
        }
      ],
      "payable": false,
      "stateMutability": "view",
      "type": "function"
    }
  ],
  "bytecode": "0x6080604052600080556103e8600155600680546001600160a01b0319167381fe72b5a8d1a857d176c3e7d5bd2679a9b8576317905534801561004057600080fd5b50610cf2806100506000396000f3fe6080604052600436106100e85760003560e01c80635e9321c31161008a578063b9e1a0c611610059578063b9e1a0c61461038c578063ca7c4dba1461038c578063cea1d3f4146103a1578063ea114bd214610400576100e8565b80635e9321c3146102cc578063706611511461031a578063904b9f721461034d57806398d5fdca14610377576100e8565b80633d371ba5116100c65780633d371ba5146101735780634129b2c9146101bf578063460e2049146102055780635d6e6c7c1461027f576100e8565b806327a41e17146100ed5780632d5cd1d61461012957806338cc48311461015e575b600080fd5b3480156100f957600080fd5b506101176004803603602081101561011057600080fd5b5035610433565b60408051918252519081900360200190f35b34801561013557600080fd5b5061015c6004803603602081101561014c57600080fd5b50356001600160a01b0316610467565b005b34801561016a57600080fd5b50610117610500565b34801561017f57600080fd5b506101a66004803603602081101561019657600080fd5b50356001600160a01b0316610506565b6040805192835260208301919091528051918290030190f35b3480156101cb57600080fd5b506101e9600480360360208110156101e257600080fd5b503561051f565b604080516001600160a01b039092168252519081900360200190f35b34801561021157600080fd5b5061022f6004803603602081101561022857600080fd5b50356105c7565b60408051602080825283518183015283519192839290830191858101910280838360005b8381101561026b578181015183820152602001610253565b505050509050019250505060405180910390f35b61029c6004803603602081101561029557600080fd5b503561068c565b6040805194855260208501939093526001600160a01b039091168383015215156060830152519081900360800190f35b3480156102d857600080fd5b506102fc600480360360408110156102ef57600080fd5b50803590602001356108ba565b60408051938452602084019290925282820152519081900360600190f35b34801561032657600080fd5b506101176004803603602081101561033d57600080fd5b50356001600160a01b0316610991565b34801561035957600080fd5b506102fc6004803603602081101561037057600080fd5b50356109a3565b34801561038357600080fd5b50610117610a51565b34801561039857600080fd5b50610117610ac7565b3480156103ad57600080fd5b506103d9600480360360608110156103c457600080fd5b50803590602081013590604001351515610acc565b6040805193845260208401929092526001600160a01b031682820152519081900360600190f35b34801561040c57600080fd5b506101a66004803603602081101561042357600080fd5b50356001600160a01b0316610b7f565b6000600261044083610ba2565b8154811061044a57fe5b90600052602060002090600502016004018054905090505b919050565b6001600160a01b0381166000818152600360205260409020546104899061051f565b6001600160a01b03161461049c57600080fd5b6001600160a01b038116600081815260036020908152604080832054835260049091528082205490516108fc674563918244f400009092026000190180159290920292818181858888f193505050501580156104fc573d6000803e3d6000fd5b5050565b30315b90565b6005602052600090815260409020805460019091015482565b6000606061052c836105c7565b905060008160008151811061053d57fe5b60209081029190910101519050600080805b84518110156105bc5760008061057787848151811061056a57fe5b6020026020010151610b7f565b90925090506000610586610a51565b820283019050858111156105b1578784815181106105a057fe5b602002602001015196508095508394505b50505060010161054f565b509195945050505050565b606060005b6002548110156106835782600282815481106105e457fe5b906000526020600020906005020160000154141561067b576002818154811061060957fe5b906000526020600020906005020160040180548060200260200160405190810160405280929190818152602001828054801561066e57602002820191906000526020600020905b81546001600160a01b03168152600190910190602001808311610650575b5050505050915050610462565b6001016105cc565b50606092915050565b600080808080674563918244f4000034146106a657600080fd5b6106af86610be5565b6107e4576040805160a081018252878152426020808301828152610258909201938301938452674563918244f400006060848101918252608085018181526002805460018101808355600092909252875160059091027f405787fa12a823e0f2b7631cc41b3ba8828b3321ca811111fa75cd3aa3bb5ace810191825596517f405787fa12a823e0f2b7631cc41b3ba8828b3321ca811111fa75cd3aa3bb5acf88015597517f405787fa12a823e0f2b7631cc41b3ba8828b3321ca811111fa75cd3aa3bb5ad087015592517f405787fa12a823e0f2b7631cc41b3ba8828b3321ca811111fa75cd3aa3bb5ad1860155518051919692959492936107d6937f405787fa12a823e0f2b7631cc41b3ba8828b3321ca811111fa75cd3aa3bb5ad20192910190610c34565b50505050600191505061080e565b60006107ef876109a3565b5091505042811161080c57506000945084935033925090506108b3565b505b336000908152600360205260409020869055600261082b87610ba2565b8154811061083557fe5b600091825260208083206004600593840290910181018054600181810183559186528386200180546001600160a01b031916339081179091558b86529183526040808620805483019055805180820182526103e881528085018781528488529590945290942091518083559251919093018190559096509450925090505b9193509193565b60008080805b6002548110156109845785600282815481106108d857fe5b906000526020600020906005020160000154141561097c5784600282815481106108fe57fe5b9060005260206000209060050201600201819055506002818154811061092057fe5b9060005260206000209060050201600101546002828154811061093f57fe5b9060005260206000209060050201600201546002838154811061095e57fe5b9060005260206000209060050201600301549350935093505061098a565b6001016108c0565b50600080fd5b9250925092565b60036020526000908152604090205481565b60008080805b6002548110156109845784600282815481106109c157fe5b9060005260206000209060050201600001541415610a4257600281815481106109e657fe5b90600052602060002090600502016001015460028281548110610a0557fe5b90600052602060002090600502016002015460028381548110610a2457fe5b90600052602060002090600502016003015493509350935050610a4a565b6001016109a9565b9193909250565b600654604080516315f789a960e21b815290516000926001600160a01b0316916357de26a4916004808301926020929190829003018186803b158015610a9657600080fd5b505afa158015610aaa573d6000803e3d6000fd5b505050506040513d6020811015610ac057600080fd5b5051905090565b600190565b60008060008315610b3d5733600090815260056020526040902054869003610af357600080fd5b33600090815260056020526040902080548790039055610b11610a51565b336000818152600560205260409020600181018054938a02909301928390555494509092509050610b76565b610b45610ac7565b3360008181526005602052604090208054928902909201808355600190920180548990039081905591945090925090505b93509350939050565b6001600160a01b0316600090815260056020526040902080546001909101549091565b6000805b600254811015610984578260028281548110610bbe57fe5b9060005260206000209060050201600001541415610bdd579050610462565b600101610ba6565b6000805b600254811015610c2b578260028281548110610c0157fe5b9060005260206000209060050201600001541415610c23576001915050610462565b600101610be9565b50600092915050565b828054828255906000526020600020908101928215610c89579160200282015b82811115610c8957825182546001600160a01b0319166001600160a01b03909116178255602090920191600190910190610c54565b50610c95929150610c99565b5090565b61050391905b80821115610c955780546001600160a01b0319168155600101610c9f56fea265627a7a72315820d0472d0655c4c481a228a27a777111b2f8b2bf592cfd6f193513fefa79624d9764736f6c63430005100032",
  "source": "pragma solidity >=0.4.21 <0.7.0;\n\nimport \"./OSM.sol\";\n// import \"./Feeder.sol\";\n\ncontract Trading {\n    uint competsid = 0;\n    uint starterWallet = 1000;\n\n    struct Contest {\n        uint id;\n        uint startDate;\n        uint endDate;\n        uint joinFee;\n        address[] players;\n    }\n\n    struct TraderInfo {\n        uint wallet;\n        uint ethers;\n    }\n\n    Contest[] contests;\n    mapping(address => uint) public contestForTraders;\n    mapping(uint => uint) private payersContestCount;\n    mapping(address => TraderInfo) public tradesInfos;\n    event logger(uint);\n    event logger(bool);\n    event logger(address);\n\n    function joinContest(uint _contestId) public payable returns (uint, uint, address, bool) {\n        bool creation = false;\n        require(msg.value == 5 ether);\n        if (!containsContest(_contestId)) {\n            address[] memory players;\n            contests.push(Contest(_contestId, now, now +  10 minutes, 5 ether, players));\n            creation = true;\n        } else {\n            uint end;\n            (,end,) = getContest(_contestId);\n            if (end <= now) {\n                return (0, 0, msg.sender, creation);\n            }\n        }\n        contestForTraders[msg.sender] = _contestId;\n        contests[getContestIndex(_contestId)].players.push(msg.sender);\n        payersContestCount[_contestId]++;\n        tradesInfos[msg.sender] = TraderInfo(1000, 0);\n\n        return (tradesInfos[msg.sender].wallet, tradesInfos[msg.sender].ethers, msg.sender, creation);\n    }\n\n    function containsContest(uint _contestId) private view returns (bool) {\n        for (uint index = 0; index < contests.length; index++) {\n            if (contests[index].id == _contestId) {\n                return true;\n            }\n        }\n\n        return false;\n    }\n\n    function getContestIndex(uint _contestId) private view returns (uint) {\n        for (uint index = 0; index < contests.length; index++) {\n            if (contests[index].id == _contestId) {\n                return index;\n            }\n        }\n\n        require(false);\n        return 0;\n    }\n\n    function getContest(uint _contestId) public view returns (uint, uint, uint) {\n        for (uint index = 0; index < contests.length; index++) {\n            if (contests[index].id == _contestId) {\n                return (contests[index].startDate, contests[index].endDate, contests[index].joinFee);\n            }\n        }\n\n        require(false);\n        return (0, 0, 0);\n    }\n\n    function getPlayers(uint _contestId) public view returns (address[] memory) {\n        for (uint index = 0; index < contests.length; index++) {\n            if (contests[index].id == _contestId) {\n                return contests[index].players;\n            }\n        }\n\n        address[] memory result;    \n        return result;\n    }\n\n    function getTraderWallet(address _a) public view returns (uint, uint) {\n        return (tradesInfos[_a].wallet, tradesInfos[_a].ethers);\n    }\n    \n    function getPrize(address payable _winner) public {\n        require(getWinner(contestForTraders[_winner]) == _winner);\n        _winner.transfer(5 ether * payersContestCount[contestForTraders[_winner]] - 1);\n    }\n\n    function getAddress() public view returns (uint) {\n        address payable add = address(uint160(address(this)));\n        uint b = add.balance;\n        return b;\n    }\n\n    function getWinner(uint _contestId) public view returns (address) {\n        address[] memory players = getPlayers(_contestId);\n\n        address winner = players[0];\n        uint winnerTotal = 0;\n        uint winnerIndex = 0;\n\n        for (uint index = 0; index < players.length; index++) {\n            uint currency;\n            uint eth;\n\n            (currency, eth) = getTraderWallet(players[index]);\n            uint total = currency + eth * getPrice();\n             \n            if (total > winnerTotal) {\n                winner = players[index];\n                winnerTotal = total;\n                winnerIndex = index;\n            }\n        }\n\n        return winner;\n    }\n\n    function getTotalPlayers(uint _contestId) public view returns (uint) {\n        return contests[getContestIndex(_contestId)].players.length;\n    } \n\n    function trade(uint _amount, uint _contestId, bool buying) public returns (uint, uint, address) {\n        if (buying) {\n            require((tradesInfos[msg.sender].wallet - _amount) > 0);\n            tradesInfos[msg.sender].wallet -= _amount;\n            tradesInfos[msg.sender].ethers += _amount * getPrice();\n\n            return (tradesInfos[msg.sender].wallet, tradesInfos[msg.sender].ethers, msg.sender);\n        }\n    \n        tradesInfos[msg.sender].wallet += _amount * getCurrencyPrice();\n        tradesInfos[msg.sender].ethers -= _amount;\n        return (tradesInfos[msg.sender].wallet, tradesInfos[msg.sender].ethers, msg.sender);\n    }\n\n    function setRoomEnd(uint _contestId, uint _end) public returns (uint, uint, uint) {\n        for (uint index = 0; index < contests.length; index++) {\n            if (contests[index].id == _contestId) {\n                contests[index].endDate = _end;\n                return (contests[index].startDate, contests[index].endDate, contests[index].joinFee);\n            }\n        }\n\n        require(false);\n        return (0, 0, 0);\n    }\n\n    function sell(uint _amount, uint _contestId) private returns (uint, uint, address) {\n        TraderInfo storage infos = tradesInfos[msg.sender];\n        infos.wallet += _amount * getPrice();\n        infos.ethers -= _amount;\n\n        return (infos.wallet, infos.ethers, msg.sender);\n    }\n\n    function getCurrencyPrice() public view returns (uint) {\n        return 1;\n    }\n\n    function getEtherPrice() public view returns (uint) {\n        return 1;\n    }\n\n    OSM osmInstance = OSM(0x81FE72B5A8d1A857d176C3E7d5Bd2679A9B85763);\n    function getPrice() public view returns (uint) {\n        return uint(osmInstance.read()) ;\n    }\n}",
  "sourcePath": "/Users/florianmazuy/Documents/blockchain/IAMSPEED/contracts/Trading.sol",
  "compiler": {
    "name": "solc",
    "version": "0.5.16+commit.9c3226ce.Emscripten.clang"
  },
  "schemaVersion": "3.0.23",
  "updatedAt": "2020-03-13T13:25:37.263Z",
  "devdoc": {
    "methods": {}
  },
  "userdoc": {
    "methods": {}
  }
}