{
  "contractName": "Trading",
  "abi": [
    {
      "constant": false,
      "inputs": [],
      "name": "createContest",
      "outputs": [
        {
          "internalType": "uint256",
          "name": "",
          "type": "uint256"
        }
      ],
      "payable": false,
      "stateMutability": "nonpayable",
      "type": "function"
    },
    {
      "constant": false,
      "inputs": [
        {
          "internalType": "uint256",
          "name": "_contestId",
          "type": "uint256"
        }
      ],
      "name": "joinContest",
      "outputs": [],
      "payable": false,
      "stateMutability": "nonpayable",
      "type": "function"
    },
    {
      "constant": false,
      "inputs": [
        {
          "internalType": "uint256",
          "name": "_amount",
          "type": "uint256"
        },
        {
          "internalType": "uint256",
          "name": "_contestId",
          "type": "uint256"
        },
        {
          "internalType": "bool",
          "name": "buying",
          "type": "bool"
        }
      ],
      "name": "trade",
      "outputs": [],
      "payable": false,
      "stateMutability": "nonpayable",
      "type": "function"
    },
    {
      "constant": false,
      "inputs": [
        {
          "internalType": "uint256",
          "name": "_contestId",
          "type": "uint256"
        }
      ],
      "name": "checkContestStatus",
      "outputs": [],
      "payable": false,
      "stateMutability": "nonpayable",
      "type": "function"
    }
  ],
  "bytecode": "0x6080604052600080556103e860015534801561001a57600080fd5b506103e28061002a6000396000f3fe608060405234801561001057600080fd5b506004361061004c5760003560e01c80635d6e6c7c14610051578063ad13430b14610070578063cea1d3f41461008a578063d887c861146100b5575b600080fd5b61006e6004803603602081101561006757600080fd5b50356100d2565b005b610078610147565b60408051918252519081900360200190f35b61006e600480360360608110156100a057600080fd5b508035906020810135906040013515156101af565b61006e600480360360208110156100cb57600080fd5b50356101d3565b600090815260036020818152604080842081516060810183526001805482528185018781523394830194855283548083018555938852949096209051919094029093019283559051928201929092559051600290910180546001600160a01b0319166001600160a01b03909216919091179055565b6000610151610370565b506040805160208101909152600080546001908101808355835260028054918201815590915281517f405787fa12a823e0f2b7631cc41b3ba8828b3321ca811111fa75cd3aa3bb5ace9091018190556101a9906100d2565b51905090565b80156101c4576101bf83836101d6565b6101ce565b6101ce838361020a565b505050565b50565b6101de610383565b6101e78261023e565b9050805183900381526101f861036b565b60209091018051919093020190915250565b610212610383565b61021b8261023e565b805184018152905061022b61036b565b6020909101805191909302900390915250565b610246610383565b606060036000848152602001908152602001600020805480602002602001604051908101604052809291908181526020016000905b828210156102d0576000848152602090819020604080516060810182526003860290920180548352600180820154848601526002909101546001600160a01b031691830191909152908352909201910161027b565b509293506000925050505b815181101561033a57336001600160a01b03168282815181106102fa57fe5b6020026020010151604001516001600160a01b031614156103325781818151811061032157fe5b602002602001015192505050610366565b6001016102db565b5060405180606001604052806103e8815260200160018152602001336001600160a01b03168152509150505b919050565b600290565b6040518060200160405280600081525090565b6040518060600160405280600081526020016000815260200160006001600160a01b03168152509056fea265627a7a723158203e403cb57b7353df37ae4512bd6d28e04911b8fd61e19a744ff9e6d3d594a14164736f6c63430005100032",
  "source": "pragma solidity >=0.4.21 <0.7.0;\n// import \"./Feeder.sol\";\n\ncontract Trading {\n    uint competsid = 0;\n    uint starterWallet = 1000;\n\n    struct Contest {\n        uint id;\n        /*uint startDate;\n        uint endDate;*/\n    }\n\n    struct Trader {\n        uint wallet;\n        uint ethers;\n        address trader;\n    }\n\n    Contest[] contests;\n    mapping(uint => Trader[]) internal contestForTraders;\n    \n\n    function createContest() public returns (uint) {\n        Contest memory contest = Contest(++competsid);\n        contests.push(contest);\n        joinContest(contest.id);\n        \n        return contest.id;\n    }\n\n    function joinContest(uint _contestId) public {\n        contestForTraders[_contestId].push(Trader(starterWallet, 0, msg.sender));\n    }\n\n    function trade(uint _amount, uint _contestId, bool buying) public {\n        if (buying) {\n            buy(_amount, _contestId);\n            return;\n        }\n    \n        sell(_amount, _contestId);\n    }\n\n    function buy(uint _amount, uint _contestId) private {\n        Trader memory trader = getTraderForContest(_contestId);\n        require((trader.wallet - _amount) >= 0, \"No Tune ma gueule\");\n        trader.wallet -= _amount;\n        trader.ethers += _amount * getPrice();\n    }\n\n    function sell(uint _amount, uint _contestId) private {\n        Trader memory trader = getTraderForContest(_contestId);\n        trader.wallet += _amount;\n        trader.ethers -= _amount * getPrice();\n    }\n\n    function getTraderForContest(uint _contestId) private returns (Trader memory) {\n        Trader[] memory traders = contestForTraders[_contestId];\n        for (uint index=0; index < traders.length; index++) {\n            if (traders[index].trader == msg.sender) {\n                return traders[index];\n            }\n        }\n\n        return Trader(1000, 1, msg.sender);\n    }\n\n    function getPrice() private returns (uint) {\n        return 2;\n    }\n    \n    function checkContestStatus(uint _contestId) public {\n    }\n}",
  "sourcePath": "/Users/davidlinhares/Downloads/IAMSPEED/contracts/Trading.sol",
  "compiler": {
    "name": "solc",
    "version": "0.5.16+commit.9c3226ce.Emscripten.clang"
  },
  "schemaVersion": "3.0.23",
  "updatedAt": "2020-03-12T15:16:13.134Z",
  "devdoc": {
    "methods": {}
  },
  "userdoc": {
    "methods": {}
  }
}