{
  "contractName": "Trading",
  "abi": [
    {
      "anonymous": false,
      "inputs": [
        {
          "indexed": false,
          "internalType": "uint256",
          "name": "",
          "type": "uint256"
        }
      ],
      "name": "logger",
      "type": "event"
    },
    {
      "anonymous": false,
      "inputs": [
        {
          "indexed": false,
          "internalType": "bool",
          "name": "",
          "type": "bool"
        }
      ],
      "name": "logger",
      "type": "event"
    },
    {
      "constant": true,
      "inputs": [
        {
          "internalType": "address",
          "name": "",
          "type": "address"
        }
      ],
      "name": "contestForTraders",
      "outputs": [
        {
          "internalType": "uint256",
          "name": "",
          "type": "uint256"
        }
      ],
      "payable": false,
      "stateMutability": "view",
      "type": "function"
    },
    {
      "constant": true,
      "inputs": [
        {
          "internalType": "address",
          "name": "",
          "type": "address"
        }
      ],
      "name": "tradesInfos",
      "outputs": [
        {
          "internalType": "uint256",
          "name": "wallet",
          "type": "uint256"
        },
        {
          "internalType": "uint256",
          "name": "ethers",
          "type": "uint256"
        }
      ],
      "payable": false,
      "stateMutability": "view",
      "type": "function"
    },
    {
      "constant": false,
      "inputs": [
        {
          "internalType": "uint256",
          "name": "_contestId",
          "type": "uint256"
        }
      ],
      "name": "joinContest",
      "outputs": [
        {
          "internalType": "uint256",
          "name": "",
          "type": "uint256"
        },
        {
          "internalType": "uint256",
          "name": "",
          "type": "uint256"
        },
        {
          "internalType": "address",
          "name": "",
          "type": "address"
        },
        {
          "internalType": "bool",
          "name": "",
          "type": "bool"
        }
      ],
      "payable": true,
      "stateMutability": "payable",
      "type": "function"
    },
    {
      "constant": true,
      "inputs": [
        {
          "internalType": "uint256",
          "name": "_contestId",
          "type": "uint256"
        }
      ],
      "name": "getContest",
      "outputs": [
        {
          "internalType": "uint256",
          "name": "",
          "type": "uint256"
        },
        {
          "internalType": "uint256",
          "name": "",
          "type": "uint256"
        },
        {
          "internalType": "uint256",
          "name": "",
          "type": "uint256"
        }
      ],
      "payable": false,
      "stateMutability": "view",
      "type": "function"
    },
    {
      "constant": true,
      "inputs": [
        {
          "internalType": "uint256",
          "name": "_contestId",
          "type": "uint256"
        }
      ],
      "name": "getPlayers",
      "outputs": [
        {
          "internalType": "address[]",
          "name": "",
          "type": "address[]"
        }
      ],
      "payable": false,
      "stateMutability": "view",
      "type": "function"
    },
    {
      "constant": true,
      "inputs": [
        {
          "internalType": "address",
          "name": "_a",
          "type": "address"
        }
      ],
      "name": "getTraderWallet",
      "outputs": [
        {
          "internalType": "uint256",
          "name": "",
          "type": "uint256"
        },
        {
          "internalType": "uint256",
          "name": "",
          "type": "uint256"
        }
      ],
      "payable": false,
      "stateMutability": "view",
      "type": "function"
    },
    {
      "constant": false,
      "inputs": [
        {
          "internalType": "address payable",
          "name": "_winner",
          "type": "address"
        }
      ],
      "name": "getPrize",
      "outputs": [],
      "payable": false,
      "stateMutability": "nonpayable",
      "type": "function"
    },
    {
      "constant": true,
      "inputs": [
        {
          "internalType": "uint256",
          "name": "_contestId",
          "type": "uint256"
        }
      ],
      "name": "getWinner",
      "outputs": [
        {
          "internalType": "address",
          "name": "",
          "type": "address"
        }
      ],
      "payable": false,
      "stateMutability": "view",
      "type": "function"
    },
    {
      "constant": true,
      "inputs": [
        {
          "internalType": "uint256",
          "name": "_contestId",
          "type": "uint256"
        }
      ],
      "name": "getTotalPlayers",
      "outputs": [
        {
          "internalType": "uint256",
          "name": "",
          "type": "uint256"
        }
      ],
      "payable": false,
      "stateMutability": "view",
      "type": "function"
    },
    {
      "constant": false,
      "inputs": [
        {
          "internalType": "uint256",
          "name": "_amount",
          "type": "uint256"
        },
        {
          "internalType": "uint256",
          "name": "_contestId",
          "type": "uint256"
        },
        {
          "internalType": "bool",
          "name": "buying",
          "type": "bool"
        }
      ],
      "name": "trade",
      "outputs": [
        {
          "internalType": "uint256",
          "name": "",
          "type": "uint256"
        },
        {
          "internalType": "uint256",
          "name": "",
          "type": "uint256"
        },
        {
          "internalType": "address",
          "name": "",
          "type": "address"
        }
      ],
      "payable": false,
      "stateMutability": "nonpayable",
      "type": "function"
    },
    {
      "constant": false,
      "inputs": [
        {
          "internalType": "uint256",
          "name": "_contestId",
          "type": "uint256"
        },
        {
          "internalType": "uint256",
          "name": "_end",
          "type": "uint256"
        }
      ],
      "name": "setRoomEnd",
      "outputs": [
        {
          "internalType": "uint256",
          "name": "",
          "type": "uint256"
        },
        {
          "internalType": "uint256",
          "name": "",
          "type": "uint256"
        },
        {
          "internalType": "uint256",
          "name": "",
          "type": "uint256"
        }
      ],
      "payable": false,
      "stateMutability": "nonpayable",
      "type": "function"
    },
    {
      "constant": true,
      "inputs": [],
      "name": "getCurrencyPrice",
      "outputs": [
        {
          "internalType": "uint256",
          "name": "",
          "type": "uint256"
        }
      ],
      "payable": false,
      "stateMutability": "view",
      "type": "function"
    },
    {
      "constant": true,
      "inputs": [],
      "name": "getEtherPrice",
      "outputs": [
        {
          "internalType": "uint256",
          "name": "",
          "type": "uint256"
        }
      ],
      "payable": false,
      "stateMutability": "view",
      "type": "function"
    },
    {
      "constant": true,
      "inputs": [],
      "name": "getPrice",
      "outputs": [
        {
          "internalType": "uint256",
          "name": "",
          "type": "uint256"
        }
      ],
      "payable": false,
      "stateMutability": "view",
      "type": "function"
    }
  ],
  "bytecode": "0x6080604052600080556103e8600155600680546001600160a01b0319167381fe72b5a8d1a857d176c3e7d5bd2679a9b8576317905534801561004057600080fd5b50610c93806100506000396000f3fe6080604052600436106100dd5760003560e01c8063706611511161007f578063b9e1a0c611610059578063b9e1a0c61461036c578063ca7c4dba1461036c578063cea1d3f414610381578063ea114bd2146103e0576100dd565b806370661151146102fa578063904b9f721461032d57806398d5fdca14610357576100dd565b80634129b2c9116100bb5780634129b2c91461019f578063460e2049146101e55780635d6e6c7c1461025f5780635e9321c3146102ac576100dd565b806327a41e17146100e25780632d5cd1d61461011e5780633d371ba514610153575b600080fd5b3480156100ee57600080fd5b5061010c6004803603602081101561010557600080fd5b5035610413565b60408051918252519081900360200190f35b34801561012a57600080fd5b506101516004803603602081101561014157600080fd5b50356001600160a01b0316610447565b005b34801561015f57600080fd5b506101866004803603602081101561017657600080fd5b50356001600160a01b03166104c0565b6040805192835260208301919091528051918290030190f35b3480156101ab57600080fd5b506101c9600480360360208110156101c257600080fd5b50356104d9565b604080516001600160a01b039092168252519081900360200190f35b3480156101f157600080fd5b5061020f6004803603602081101561020857600080fd5b503561057c565b60408051602080825283518183015283519192839290830191858101910280838360005b8381101561024b578181015183820152602001610233565b505050509050019250505060405180910390f35b61027c6004803603602081101561027557600080fd5b5035610641565b6040805194855260208501939093526001600160a01b039091168383015215156060830152519081900360800190f35b3480156102b857600080fd5b506102dc600480360360408110156102cf57600080fd5b508035906020013561085a565b60408051938452602084019290925282820152519081900360600190f35b34801561030657600080fd5b5061010c6004803603602081101561031d57600080fd5b50356001600160a01b0316610931565b34801561033957600080fd5b506102dc6004803603602081101561035057600080fd5b5035610943565b34801561036357600080fd5b5061010c6109f1565b34801561037857600080fd5b5061010c610a68565b34801561038d57600080fd5b506103b9600480360360608110156103a457600080fd5b50803590602081013590604001351515610a6d565b6040805193845260208401929092526001600160a01b031682820152519081900360600190f35b3480156103ec57600080fd5b506101866004803603602081101561040357600080fd5b50356001600160a01b0316610b20565b6000600261042083610b43565b8154811061042a57fe5b90600052602060002090600502016004018054905090505b919050565b6001600160a01b038116600090815260036020526040902054610469816104d9565b6001600160a01b0316826001600160a01b03161461048657600080fd5b6040516001600160a01b038316904780156108fc02916000818181858888f193505050501580156104bb573d6000803e3d6000fd5b505050565b6005602052600090815260409020805460019091015482565b600060606104e68361057c565b90506000816000815181106104f757fe5b602090810291909101015190506000805b83518110156105725760008061053086848151811061052357fe5b6020026020010151610b20565b9092509050600061053f610a68565b820283019050848111156105675786848151811061055957fe5b602002602001015195508094505b505050600101610508565b5090949350505050565b606060005b60025481101561063857826002828154811061059957fe5b906000526020600020906005020160000154141561063057600281815481106105be57fe5b906000526020600020906005020160040180548060200260200160405190810160405280929190818152602001828054801561062357602002820191906000526020600020905b81546001600160a01b03168152600190910190602001808311610605575b5050505050915050610442565b600101610581565b50606092915050565b6000808080803461065157600080fd5b61065a86610b86565b610784576040805160a08101825287815242602080830182815261025890920193830193845260056060848101828152608086018281526002805460018101808355600092909252885195027f405787fa12a823e0f2b7631cc41b3ba8828b3321ca811111fa75cd3aa3bb5ace810195865596517f405787fa12a823e0f2b7631cc41b3ba8828b3321ca811111fa75cd3aa3bb5acf88015597517f405787fa12a823e0f2b7631cc41b3ba8828b3321ca811111fa75cd3aa3bb5ad087015590517f405787fa12a823e0f2b7631cc41b3ba8828b3321ca811111fa75cd3aa3bb5ad1860155518051919695949293610776937f405787fa12a823e0f2b7631cc41b3ba8828b3321ca811111fa75cd3aa3bb5ad20192910190610bd5565b5050505060019150506107ae565b600061078f87610943565b509150504281116107ac5750600094508493503392509050610853565b505b33600090815260036020526040902086905560026107cb87610b43565b815481106107d557fe5b600091825260208083206004600593840290910181018054600181810183559186528386200180546001600160a01b031916339081179091558b86529183526040808620805483019055805180820182526103e881528085018781528488529590945290942091518083559251919093018190559096509450925090505b9193509193565b60008080805b60025481101561092457856002828154811061087857fe5b906000526020600020906005020160000154141561091c57846002828154811061089e57fe5b906000526020600020906005020160020181905550600281815481106108c057fe5b906000526020600020906005020160010154600282815481106108df57fe5b906000526020600020906005020160020154600283815481106108fe57fe5b9060005260206000209060050201600301549350935093505061092a565b600101610860565b50600080fd5b9250925092565b60036020526000908152604090205481565b60008080805b60025481101561092457846002828154811061096157fe5b90600052602060002090600502016000015414156109e2576002818154811061098657fe5b906000526020600020906005020160010154600282815481106109a557fe5b906000526020600020906005020160020154600283815481106109c457fe5b906000526020600020906005020160030154935093509350506109ea565b600101610949565b9193909250565b600654604080516315f789a960e21b815290516000926001600160a01b0316916357de26a4916004808301926020929190829003018186803b158015610a3657600080fd5b505afa158015610a4a573d6000803e3d6000fd5b505050506040513d6020811015610a6057600080fd5b505190505b90565b600190565b60008060008315610ade5733600090815260056020526040902054869003610a9457600080fd5b33600090815260056020526040902080548790039055610ab2610a68565b336000818152600560205260409020600181018054938a02909301928390555494509092509050610b17565b610ae6610a68565b3360008181526005602052604090208054928902909201808355600190920180548990039081905591945090925090505b93509350939050565b6001600160a01b0316600090815260056020526040902080546001909101549091565b6000805b600254811015610924578260028281548110610b5f57fe5b9060005260206000209060050201600001541415610b7e579050610442565b600101610b47565b6000805b600254811015610bcc578260028281548110610ba257fe5b9060005260206000209060050201600001541415610bc4576001915050610442565b600101610b8a565b50600092915050565b828054828255906000526020600020908101928215610c2a579160200282015b82811115610c2a57825182546001600160a01b0319166001600160a01b03909116178255602090920191600190910190610bf5565b50610c36929150610c3a565b5090565b610a6591905b80821115610c365780546001600160a01b0319168155600101610c4056fea265627a7a72315820b335766638aa30b4c2685b0724fce39ad8edd812ec8ead280a5402e1dd807f9a64736f6c63430005100032",
  "source": "pragma solidity >=0.4.21 <0.7.0;\n\nimport \"./OSM.sol\";\n// import \"./Feeder.sol\";\n\ncontract Trading {\n    uint competsid = 0;\n    uint starterWallet = 1000;\n\n    struct Contest {\n        uint id;\n        uint startDate;\n        uint endDate;\n        uint joinFee;\n        address[] players;\n    }\n\n    struct TraderInfo {\n        uint wallet;\n        uint ethers;\n    }\n\n    Contest[] contests;\n    mapping(address => uint) public contestForTraders;\n    mapping(uint => uint) private payersContestCount;\n    mapping(address => TraderInfo) public tradesInfos;\n    event logger(uint);\n    event logger(bool);\n\n    function joinContest(uint _contestId) public payable returns (uint, uint, address, bool) {\n        bool creation = false;\n        require(msg.value > 0);\n        if (!containsContest(_contestId)) {\n            address[] memory players;\n            contests.push(Contest(_contestId, now, now +  10 minutes, 5, players));\n            creation = true;\n        } else {\n            uint end;\n            (,end,) = getContest(_contestId);\n            if (end <= now) {\n                return (0, 0, msg.sender, creation);\n            }\n        }\n        contestForTraders[msg.sender] = _contestId;\n        contests[getContestIndex(_contestId)].players.push(msg.sender);\n        payersContestCount[_contestId]++;\n        tradesInfos[msg.sender] = TraderInfo(1000, 0);\n\n        return (tradesInfos[msg.sender].wallet, tradesInfos[msg.sender].ethers, msg.sender, creation);\n    }\n\n    function containsContest(uint _contestId) private view returns (bool) {\n        for (uint index = 0; index < contests.length; index++) {\n            if (contests[index].id == _contestId) {\n                return true;\n            }\n        }\n\n        return false;\n    }\n\n    function getContestIndex(uint _contestId) private view returns (uint) {\n        for (uint index = 0; index < contests.length; index++) {\n            if (contests[index].id == _contestId) {\n                return index;\n            }\n        }\n\n        require(false);\n        return 0;\n    }\n\n    function getContest(uint _contestId) public view returns (uint, uint, uint) {\n        for (uint index = 0; index < contests.length; index++) {\n            if (contests[index].id == _contestId) {\n                return (contests[index].startDate, contests[index].endDate, contests[index].joinFee);\n            }\n        }\n\n        require(false);\n        return (0, 0, 0);\n    }\n\n    function getPlayers(uint _contestId) public view returns (address[] memory) {\n        for (uint index = 0; index < contests.length; index++) {\n            if (contests[index].id == _contestId) {\n                return contests[index].players;\n            }\n        }\n\n        address[] memory result;    \n        return result;\n    }\n\n    function getTraderWallet(address _a) public view returns (uint, uint) {\n        return (tradesInfos[_a].wallet, tradesInfos[_a].ethers);\n    }\n    \n    function getPrize(address payable _winner) public {\n        uint contestId = contestForTraders[_winner];\n        require(_winner == getWinner(contestId));\n        _winner.transfer(address(this).balance);\n    }\n\n    function getWinner(uint _contestId) public view returns (address) {\n        address[] memory players = getPlayers(_contestId);\n\n        address winner = players[0];\n        uint winnerTotal = 0;\n\n        for (uint index = 0; index < players.length; index++) {\n            uint currency;\n            uint eth;\n\n            (currency, eth) = getTraderWallet(players[index]);\n            uint total = currency + eth * getEtherPrice();\n             \n            if (total > winnerTotal) {\n                winner = players[index];\n                winnerTotal = total;\n            }\n        }\n\n        return winner;\n    }\n\n    function getTotalPlayers(uint _contestId) public view returns (uint) {\n        return contests[getContestIndex(_contestId)].players.length;\n    } \n\n    function trade(uint _amount, uint _contestId, bool buying) public returns (uint, uint, address) {\n        if (buying) {\n            require((tradesInfos[msg.sender].wallet - _amount) > 0);\n            tradesInfos[msg.sender].wallet -= _amount;\n            tradesInfos[msg.sender].ethers += _amount * getEtherPrice();\n\n            return (tradesInfos[msg.sender].wallet, tradesInfos[msg.sender].ethers, msg.sender);\n        }\n    \n        tradesInfos[msg.sender].wallet += _amount * getCurrencyPrice();\n        tradesInfos[msg.sender].ethers -= _amount;\n        return (tradesInfos[msg.sender].wallet, tradesInfos[msg.sender].ethers, msg.sender);\n    }\n\n    function setRoomEnd(uint _contestId, uint _end) public returns (uint, uint, uint) {\n        for (uint index = 0; index < contests.length; index++) {\n            if (contests[index].id == _contestId) {\n                contests[index].endDate = _end;\n                return (contests[index].startDate, contests[index].endDate, contests[index].joinFee);\n            }\n        }\n\n        require(false);\n        return (0, 0, 0);\n    }\n\n    function sell(uint _amount, uint _contestId) private returns (uint, uint, address) {\n        TraderInfo storage infos = tradesInfos[msg.sender];\n        infos.wallet += _amount * getCurrencyPrice();\n        infos.ethers -= _amount;\n\n        return (infos.wallet, infos.ethers, msg.sender);\n    }\n\n    function getCurrencyPrice() public view returns (uint) {\n        return 1;\n    }\n\n    function getEtherPrice() public view returns (uint) {\n        return 1;\n    }\n\n    OSM osmInstance = OSM(0x81FE72B5A8d1A857d176C3E7d5Bd2679A9B85763);\n    function getPrice() public view returns (uint) {\n        return uint(osmInstance.read()) ;\n    }\n}",
  "sourcePath": "/Users/davidlinhares/Downloads/IAMSPEED/contracts/Trading.sol",
  "compiler": {
    "name": "solc",
    "version": "0.5.16+commit.9c3226ce.Emscripten.clang"
  },
  "schemaVersion": "3.0.23",
  "updatedAt": "2020-03-13T10:37:05.900Z",
  "networkType": "ethereum",
  "devdoc": {
    "methods": {}
  },
  "userdoc": {
    "methods": {}
  }
}