{
  "contractName": "Trading",
  "abi": [
    {
      "constant": false,
      "inputs": [],
      "name": "createContest",
      "outputs": [],
      "payable": false,
      "stateMutability": "nonpayable",
      "type": "function"
    },
    {
      "constant": false,
      "inputs": [
        {
          "internalType": "uint256",
          "name": "_contestId",
          "type": "uint256"
        }
      ],
      "name": "joinContest",
      "outputs": [],
      "payable": false,
      "stateMutability": "nonpayable",
      "type": "function"
    },
    {
      "constant": false,
      "inputs": [
        {
          "internalType": "uint256",
          "name": "_amount",
          "type": "uint256"
        },
        {
          "internalType": "uint256",
          "name": "_contestId",
          "type": "uint256"
        },
        {
          "internalType": "bool",
          "name": "buying",
          "type": "bool"
        }
      ],
      "name": "trade",
      "outputs": [],
      "payable": false,
      "stateMutability": "nonpayable",
      "type": "function"
    },
    {
      "constant": false,
      "inputs": [
        {
          "internalType": "uint256",
          "name": "_contestId",
          "type": "uint256"
        }
      ],
      "name": "checkContestStatus",
      "outputs": [],
      "payable": false,
      "stateMutability": "nonpayable",
      "type": "function"
    }
  ],
  "bytecode": "0x6080604052662386f26fc100006000556103e860015534801561002157600080fd5b506103fb806100316000396000f3fe608060405234801561001057600080fd5b506004361061004c5760003560e01c80635d6e6c7c14610051578063ad13430b14610070578063cea1d3f414610078578063d887c861146100a3575b600080fd5b61006e6004803603602081101561006757600080fd5b50356100c0565b005b61006e610135565b61006e6004803603606081101561008e57600080fd5b508035906020810135906040013515156101cb565b61006e600480360360208110156100b957600080fd5b50356101c8565b600090815260036020818152604080842081516060810183526001805482528185018781523394830194855283548083018555938852949096209051919094029093019283559051928201929092559051600290910180546001600160a01b0319166001600160a01b03909216919091179055565b61013d610389565b6040805160208082018352600054428385015233606090811b90840152835160548185030181526074840190945283519390910192909220909182918161018057fe5b0690526002805460018101825560009190915281517f405787fa12a823e0f2b7631cc41b3ba8828b3321ca811111fa75cd3aa3bb5ace9091018190559091506101c8906100c0565b50565b80156101e0576101db83836101ef565b6101ea565b6101ea8383610223565b505050565b6101f761039c565b61020082610257565b905080518390038152610211610384565b60209091018051919093020190915250565b61022b61039c565b61023482610257565b8051840181529050610244610384565b6020909101805191909302900390915250565b61025f61039c565b606060036000848152602001908152602001600020805480602002602001604051908101604052809291908181526020016000905b828210156102e9576000848152602090819020604080516060810182526003860290920180548352600180820154848601526002909101546001600160a01b0316918301919091529083529092019101610294565b509293506000925050505b815181101561035357336001600160a01b031682828151811061031357fe5b6020026020010151604001516001600160a01b0316141561034b5781818151811061033a57fe5b60200260200101519250505061037f565b6001016102f4565b5060405180606001604052806103e8815260200160018152602001336001600160a01b03168152509150505b919050565b600290565b6040518060200160405280600081525090565b6040518060600160405280600081526020016000815260200160006001600160a01b03168152509056fea265627a7a72315820c62215304e248fe17a6b74f0465ca9ca1e69084354b89acb5bf2c21fc265315464736f6c63430005100032",
  "source": "pragma solidity >=0.4.21 <0.7.0;\n// import \"./Feeder.sol\";\n\ncontract Trading {\n    uint harryPotterusModulus = 10 ** 16;\n    uint starterWallet = 1000;\n\n    struct Contest {\n        uint id;\n        /*uint startDate;\n        uint endDate;*/\n    }\n\n    struct Trader {\n        uint wallet;\n        uint ethers;\n        address trader;\n    }\n\n    Contest[] contests;\n    mapping(uint => Trader[]) internal contestForTraders;\n    \n\n    function createContest() public {\n        Contest memory contest = Contest(uint(keccak256(abi.encodePacked(now, msg.sender))) % harryPotterusModulus);\n        contests.push(contest);\n        joinContest(contest.id);\n    }\n\n    function joinContest(uint _contestId) public {\n        contestForTraders[_contestId].push(Trader(starterWallet, 0, msg.sender));\n    }\n\n    function trade(uint _amount, uint _contestId, bool buying) public {\n        if (buying) {\n            buy(_amount, _contestId);\n            return;\n        }\n    \n        sell(_amount, _contestId);\n    }\n\n    function buy(uint _amount, uint _contestId) private {\n        Trader memory trader = getTraderForContest(_contestId);\n        require((trader.wallet - _amount) >= 0, \"No Tune ma gueule\");\n        trader.wallet -= _amount;\n        trader.ethers += _amount * getPrice();\n    }\n\n    function sell(uint _amount, uint _contestId) private {\n        Trader memory trader = getTraderForContest(_contestId);\n        trader.wallet += _amount;\n        trader.ethers -= _amount * getPrice();\n    }\n\n    function getTraderForContest(uint _contestId) private returns (Trader memory) {\n        Trader[] memory traders = contestForTraders[_contestId];\n        for (uint index=0; index < traders.length; index++) {\n            if (traders[index].trader == msg.sender) {\n                return traders[index];\n            }\n        }\n\n        return Trader(1000, 1, msg.sender);\n    }\n\n    function getPrice() private returns (uint) {\n        return 2;\n    }\n    \n    function checkContestStatus(uint _contestId) public {\n    }\n}",
  "sourcePath": "/Users/florianmazuy/Documents/blockchain/IAMSPEED/contracts/Trading.sol",
  "compiler": {
    "name": "solc",
    "version": "0.5.16+commit.9c3226ce.Emscripten.clang"
  },
  "schemaVersion": "3.0.23",
  "updatedAt": "2020-03-12T15:02:57.373Z",
  "devdoc": {
    "methods": {}
  },
  "userdoc": {
    "methods": {}
  }
}