{
  "contractName": "Trading",
  "abi": [
    {
      "anonymous": false,
      "inputs": [
        {
          "indexed": false,
          "internalType": "uint256",
          "name": "",
          "type": "uint256"
        }
      ],
      "name": "logger",
      "type": "event"
    },
    {
      "anonymous": false,
      "inputs": [
        {
          "indexed": false,
          "internalType": "bool",
          "name": "",
          "type": "bool"
        }
      ],
      "name": "logger",
      "type": "event"
    },
    {
      "anonymous": false,
      "inputs": [
        {
          "indexed": false,
          "internalType": "address",
          "name": "",
          "type": "address"
        }
      ],
      "name": "logger",
      "type": "event"
    },
    {
      "constant": true,
      "inputs": [
        {
          "internalType": "address",
          "name": "",
          "type": "address"
        }
      ],
      "name": "contestForTraders",
      "outputs": [
        {
          "internalType": "uint256",
          "name": "",
          "type": "uint256"
        }
      ],
      "payable": false,
      "stateMutability": "view",
      "type": "function"
    },
    {
      "constant": true,
      "inputs": [
        {
          "internalType": "address",
          "name": "",
          "type": "address"
        }
      ],
      "name": "tradesInfos",
      "outputs": [
        {
          "internalType": "uint256",
          "name": "wallet",
          "type": "uint256"
        },
        {
          "internalType": "uint256",
          "name": "ethers",
          "type": "uint256"
        }
      ],
      "payable": false,
      "stateMutability": "view",
      "type": "function"
    },
    {
      "constant": false,
      "inputs": [
        {
          "internalType": "uint256",
          "name": "_contestId",
          "type": "uint256"
        }
      ],
      "name": "joinContest",
      "outputs": [
        {
          "internalType": "uint256",
          "name": "",
          "type": "uint256"
        },
        {
          "internalType": "uint256",
          "name": "",
          "type": "uint256"
        },
        {
          "internalType": "address",
          "name": "",
          "type": "address"
        },
        {
          "internalType": "bool",
          "name": "",
          "type": "bool"
        }
      ],
      "payable": true,
      "stateMutability": "payable",
      "type": "function"
    },
    {
      "constant": true,
      "inputs": [
        {
          "internalType": "uint256",
          "name": "_contestId",
          "type": "uint256"
        }
      ],
      "name": "getContest",
      "outputs": [
        {
          "internalType": "uint256",
          "name": "",
          "type": "uint256"
        },
        {
          "internalType": "uint256",
          "name": "",
          "type": "uint256"
        },
        {
          "internalType": "uint256",
          "name": "",
          "type": "uint256"
        }
      ],
      "payable": false,
      "stateMutability": "view",
      "type": "function"
    },
    {
      "constant": true,
      "inputs": [
        {
          "internalType": "uint256",
          "name": "_contestId",
          "type": "uint256"
        }
      ],
      "name": "getPlayers",
      "outputs": [
        {
          "internalType": "address[]",
          "name": "",
          "type": "address[]"
        }
      ],
      "payable": false,
      "stateMutability": "view",
      "type": "function"
    },
    {
      "constant": true,
      "inputs": [
        {
          "internalType": "address",
          "name": "_a",
          "type": "address"
        }
      ],
      "name": "getTraderWallet",
      "outputs": [
        {
          "internalType": "uint256",
          "name": "",
          "type": "uint256"
        },
        {
          "internalType": "uint256",
          "name": "",
          "type": "uint256"
        }
      ],
      "payable": false,
      "stateMutability": "view",
      "type": "function"
    },
    {
      "constant": false,
      "inputs": [
        {
          "internalType": "address payable",
          "name": "_winner",
          "type": "address"
        }
      ],
      "name": "getPrize",
      "outputs": [],
      "payable": false,
      "stateMutability": "nonpayable",
      "type": "function"
    },
    {
      "constant": true,
      "inputs": [],
      "name": "getAddress",
      "outputs": [
        {
          "internalType": "uint256",
          "name": "",
          "type": "uint256"
        }
      ],
      "payable": false,
      "stateMutability": "view",
      "type": "function"
    },
    {
      "constant": true,
      "inputs": [
        {
          "internalType": "uint256",
          "name": "_contestId",
          "type": "uint256"
        }
      ],
      "name": "getWinner",
      "outputs": [
        {
          "internalType": "address",
          "name": "",
          "type": "address"
        }
      ],
      "payable": false,
      "stateMutability": "view",
      "type": "function"
    },
    {
      "constant": true,
      "inputs": [
        {
          "internalType": "uint256",
          "name": "_contestId",
          "type": "uint256"
        }
      ],
      "name": "getTotalPlayers",
      "outputs": [
        {
          "internalType": "uint256",
          "name": "",
          "type": "uint256"
        }
      ],
      "payable": false,
      "stateMutability": "view",
      "type": "function"
    },
    {
      "constant": false,
      "inputs": [
        {
          "internalType": "uint256",
          "name": "_amount",
          "type": "uint256"
        },
        {
          "internalType": "uint256",
          "name": "_contestId",
          "type": "uint256"
        },
        {
          "internalType": "bool",
          "name": "buying",
          "type": "bool"
        }
      ],
      "name": "trade",
      "outputs": [
        {
          "internalType": "uint256",
          "name": "",
          "type": "uint256"
        },
        {
          "internalType": "uint256",
          "name": "",
          "type": "uint256"
        },
        {
          "internalType": "address",
          "name": "",
          "type": "address"
        }
      ],
      "payable": false,
      "stateMutability": "nonpayable",
      "type": "function"
    },
    {
      "constant": false,
      "inputs": [
        {
          "internalType": "uint256",
          "name": "_contestId",
          "type": "uint256"
        },
        {
          "internalType": "uint256",
          "name": "_end",
          "type": "uint256"
        }
      ],
      "name": "setRoomEnd",
      "outputs": [
        {
          "internalType": "uint256",
          "name": "",
          "type": "uint256"
        },
        {
          "internalType": "uint256",
          "name": "",
          "type": "uint256"
        },
        {
          "internalType": "uint256",
          "name": "",
          "type": "uint256"
        }
      ],
      "payable": false,
      "stateMutability": "nonpayable",
      "type": "function"
    },
    {
      "constant": true,
      "inputs": [],
      "name": "getPrice",
      "outputs": [
        {
          "internalType": "uint256",
          "name": "",
          "type": "uint256"
        }
      ],
      "payable": false,
      "stateMutability": "view",
      "type": "function"
    }
  ],
  "bytecode": "0x6080604052600080556103e8600155600680546001600160a01b0319167381fe72b5a8d1a857d176c3e7d5bd2679a9b8576317905534801561004057600080fd5b50610caf806100506000396000f3fe6080604052600436106100c25760003560e01c80635d6e6c7c1161007f578063904b9f7211610059578063904b9f721461032757806398d5fdca14610351578063cea1d3f414610366578063ea114bd2146103c5576100c2565b80635d6e6c7c146102595780635e9321c3146102a657806370661151146102f4576100c2565b806327a41e17146100c75780632d5cd1d61461010357806338cc4831146101385780633d371ba51461014d5780634129b2c914610199578063460e2049146101df575b600080fd5b3480156100d357600080fd5b506100f1600480360360208110156100ea57600080fd5b50356103f8565b60408051918252519081900360200190f35b34801561010f57600080fd5b506101366004803603602081101561012657600080fd5b50356001600160a01b031661042c565b005b34801561014457600080fd5b506100f16104c4565b34801561015957600080fd5b506101806004803603602081101561017057600080fd5b50356001600160a01b03166104ca565b6040805192835260208301919091528051918290030190f35b3480156101a557600080fd5b506101c3600480360360208110156101bc57600080fd5b50356104e3565b604080516001600160a01b039092168252519081900360200190f35b3480156101eb57600080fd5b506102096004803603602081101561020257600080fd5b503561058b565b60408051602080825283518183015283519192839290830191858101910280838360005b8381101561024557818101518382015260200161022d565b505050509050019250505060405180910390f35b6102766004803603602081101561026f57600080fd5b5035610650565b6040805194855260208501939093526001600160a01b039091168383015215156060830152519081900360800190f35b3480156102b257600080fd5b506102d6600480360360408110156102c957600080fd5b508035906020013561087c565b60408051938452602084019290925282820152519081900360600190f35b34801561030057600080fd5b506100f16004803603602081101561031757600080fd5b50356001600160a01b0316610953565b34801561033357600080fd5b506102d66004803603602081101561034a57600080fd5b5035610965565b34801561035d57600080fd5b506100f1610a13565b34801561037257600080fd5b5061039e6004803603606081101561038957600080fd5b50803590602081013590604001351515610a89565b6040805193845260208401929092526001600160a01b031682820152519081900360600190f35b3480156103d157600080fd5b50610180600480360360208110156103e857600080fd5b50356001600160a01b0316610b3c565b6000600261040583610b5f565b8154811061040f57fe5b90600052602060002090600502016004018054905090505b919050565b6001600160a01b03811660008181526003602052604090205461044e906104e3565b6001600160a01b03161461046157600080fd5b6001600160a01b038116600081815260036020908152604080832054835260049091528082205490516108fc66038d7ea4c680009092026000190180159290920292818181858888f193505050501580156104c0573d6000803e3d6000fd5b5050565b30315b90565b6005602052600090815260409020805460019091015482565b600060606104f08361058b565b905060008160008151811061050157fe5b60209081029190910101519050600080805b84518110156105805760008061053b87848151811061052e57fe5b6020026020010151610b3c565b9092509050600061054a610a13565b820283019050858111156105755787848151811061056457fe5b602002602001015196508095508394505b505050600101610513565b509195945050505050565b606060005b6002548110156106475782600282815481106105a857fe5b906000526020600020906005020160000154141561063f57600281815481106105cd57fe5b906000526020600020906005020160040180548060200260200160405190810160405280929190818152602001828054801561063257602002820191906000526020600020905b81546001600160a01b03168152600190910190602001808311610614575b5050505050915050610427565b600101610590565b50606092915050565b60008080808066038d7ea4c68000341461066957600080fd5b61067286610ba2565b6107a6576040805160a08101825287815242602080830182815261025890920193830193845266038d7ea4c680006060848101918252608085018181526002805460018101808355600092909252875160059091027f405787fa12a823e0f2b7631cc41b3ba8828b3321ca811111fa75cd3aa3bb5ace810191825596517f405787fa12a823e0f2b7631cc41b3ba8828b3321ca811111fa75cd3aa3bb5acf88015597517f405787fa12a823e0f2b7631cc41b3ba8828b3321ca811111fa75cd3aa3bb5ad087015592517f405787fa12a823e0f2b7631cc41b3ba8828b3321ca811111fa75cd3aa3bb5ad186015551805191969295949293610798937f405787fa12a823e0f2b7631cc41b3ba8828b3321ca811111fa75cd3aa3bb5ad20192910190610bf1565b5050505060019150506107d0565b60006107b187610965565b509150504281116107ce5750600094508493503392509050610875565b505b33600090815260036020526040902086905560026107ed87610b5f565b815481106107f757fe5b600091825260208083206004600593840290910181018054600181810183559186528386200180546001600160a01b031916339081179091558b86529183526040808620805483019055805180820182526103e881528085018781528488529590945290942091518083559251919093018190559096509450925090505b9193509193565b60008080805b60025481101561094657856002828154811061089a57fe5b906000526020600020906005020160000154141561093e5784600282815481106108c057fe5b906000526020600020906005020160020181905550600281815481106108e257fe5b9060005260206000209060050201600101546002828154811061090157fe5b9060005260206000209060050201600201546002838154811061092057fe5b9060005260206000209060050201600301549350935093505061094c565b600101610882565b50600080fd5b9250925092565b60036020526000908152604090205481565b60008080805b60025481101561094657846002828154811061098357fe5b9060005260206000209060050201600001541415610a0457600281815481106109a857fe5b906000526020600020906005020160010154600282815481106109c757fe5b906000526020600020906005020160020154600283815481106109e657fe5b90600052602060002090600502016003015493509350935050610a0c565b60010161096b565b9193909250565b600654604080516315f789a960e21b815290516000926001600160a01b0316916357de26a4916004808301926020929190829003018186803b158015610a5857600080fd5b505afa158015610a6c573d6000803e3d6000fd5b505050506040513d6020811015610a8257600080fd5b5051905090565b60008060008315610afa5733600090815260056020526040902054869003610ab057600080fd5b33600090815260056020526040902080548790039055610ace610a13565b336000818152600560205260409020600181018054938a02909301928390555494509092509050610b33565b610b02610a13565b3360008181526005602052604090208054928902909201808355600190920180548990039081905591945090925090505b93509350939050565b6001600160a01b0316600090815260056020526040902080546001909101549091565b6000805b600254811015610946578260028281548110610b7b57fe5b9060005260206000209060050201600001541415610b9a579050610427565b600101610b63565b6000805b600254811015610be8578260028281548110610bbe57fe5b9060005260206000209060050201600001541415610be0576001915050610427565b600101610ba6565b50600092915050565b828054828255906000526020600020908101928215610c46579160200282015b82811115610c4657825182546001600160a01b0319166001600160a01b03909116178255602090920191600190910190610c11565b50610c52929150610c56565b5090565b6104c791905b80821115610c525780546001600160a01b0319168155600101610c5c56fea265627a7a723158203b0d3b7fdb1214c3c248293573bfae05693fcba47fef194400795251b8e3dcec64736f6c63430005100032",
  "source": "pragma solidity >=0.4.21 <0.7.0;\n\nimport \"./OSM.sol\";\n// import \"./Feeder.sol\";\n\ncontract Trading {\n    uint256 competsid = 0;\n    uint256 starterWallet = 1000;\n\n    struct Contest {\n        uint256 id;\n        uint256 startDate;\n        uint256 endDate;\n        uint256 joinFee;\n        address[] players;\n    }\n\n    struct TraderInfo {\n        uint256 wallet;\n        uint256 ethers;\n    }\n\n    Contest[] contests;\n    mapping(address => uint256) public contestForTraders;\n    mapping(uint256 => uint256) private payersContestCount;\n    mapping(address => TraderInfo) public tradesInfos;\n    event logger(uint256);\n    event logger(bool);\n    event logger(address);\n\n    function joinContest(uint256 _contestId)\n        public\n        payable\n        returns (uint256, uint256, address, bool)\n    {\n        bool creation = false;\n        require(msg.value == 1000000000000000 wei);\n        if (!containsContest(_contestId)) {\n            address[] memory players;\n            contests.push(\n                Contest(_contestId, now, now + 10 minutes, 1000000000000000 wei, players)\n            );\n            creation = true;\n        } else {\n            uint256 end;\n            (, end, ) = getContest(_contestId);\n            if (end <= now) {\n                return (0, 0, msg.sender, creation);\n            }\n        }\n        contestForTraders[msg.sender] = _contestId;\n        contests[getContestIndex(_contestId)].players.push(msg.sender);\n        payersContestCount[_contestId]++;\n        tradesInfos[msg.sender] = TraderInfo(1000, 0);\n\n        return (\n            tradesInfos[msg.sender].wallet,\n            tradesInfos[msg.sender].ethers,\n            msg.sender,\n            creation\n        );\n    }\n\n    function containsContest(uint256 _contestId) private view returns (bool) {\n        for (uint256 index = 0; index < contests.length; index++) {\n            if (contests[index].id == _contestId) {\n                return true;\n            }\n        }\n\n        return false;\n    }\n\n    function getContestIndex(uint256 _contestId)\n        private\n        view\n        returns (uint256)\n    {\n        for (uint256 index = 0; index < contests.length; index++) {\n            if (contests[index].id == _contestId) {\n                return index;\n            }\n        }\n\n        require(false);\n        return 0;\n    }\n\n    function getContest(uint256 _contestId)\n        public\n        view\n        returns (uint256, uint256, uint256)\n    {\n        for (uint256 index = 0; index < contests.length; index++) {\n            if (contests[index].id == _contestId) {\n                return (\n                    contests[index].startDate,\n                    contests[index].endDate,\n                    contests[index].joinFee\n                );\n            }\n        }\n\n        require(false);\n        return (0, 0, 0);\n    }\n\n    function getPlayers(uint256 _contestId)\n        public\n        view\n        returns (address[] memory)\n    {\n        for (uint256 index = 0; index < contests.length; index++) {\n            if (contests[index].id == _contestId) {\n                return contests[index].players;\n            }\n        }\n\n        address[] memory result;\n        return result;\n    }\n\n    function getTraderWallet(address _a)\n        public\n        view\n        returns (uint256, uint256)\n    {\n        return (tradesInfos[_a].wallet, tradesInfos[_a].ethers);\n    }\n\n    function getPrize(address payable _winner) public {\n        require(getWinner(contestForTraders[_winner]) == _winner);\n        _winner.transfer(\n            1000000000000000 wei * payersContestCount[contestForTraders[_winner]] - 1\n        );\n    }\n\n    function getAddress() public view returns (uint256) {\n        address payable add = address(uint160(address(this)));\n        uint256 b = add.balance;\n        return b;\n    }\n\n    function getWinner(uint256 _contestId) public view returns (address) {\n        address[] memory players = getPlayers(_contestId);\n\n        address winner = players[0];\n        uint256 winnerTotal = 0;\n        uint256 winnerIndex = 0;\n\n        for (uint256 index = 0; index < players.length; index++) {\n            uint256 currency;\n            uint256 eth;\n\n            (currency, eth) = getTraderWallet(players[index]);\n            uint256 total = currency + eth * getPrice();\n\n            if (total > winnerTotal) {\n                winner = players[index];\n                winnerTotal = total;\n                winnerIndex = index;\n            }\n        }\n\n        return winner;\n    }\n\n    function getTotalPlayers(uint256 _contestId) public view returns (uint256) {\n        return contests[getContestIndex(_contestId)].players.length;\n    }\n\n    function trade(uint256 _amount, uint256 _contestId, bool buying)\n        public\n        returns (uint256, uint256, address)\n    {\n        if (buying) {\n            require((tradesInfos[msg.sender].wallet - _amount) > 0);\n            tradesInfos[msg.sender].wallet -= _amount;\n            tradesInfos[msg.sender].ethers += _amount * getPrice();\n\n            return (\n                tradesInfos[msg.sender].wallet,\n                tradesInfos[msg.sender].ethers,\n                msg.sender\n            );\n        }\n\n        tradesInfos[msg.sender].wallet += _amount * getPrice();\n        tradesInfos[msg.sender].ethers -= _amount;\n        return (\n            tradesInfos[msg.sender].wallet,\n            tradesInfos[msg.sender].ethers,\n            msg.sender\n        );\n    }\n\n    function setRoomEnd(uint256 _contestId, uint256 _end)\n        public\n        returns (uint256, uint256, uint256)\n    {\n        for (uint256 index = 0; index < contests.length; index++) {\n            if (contests[index].id == _contestId) {\n                contests[index].endDate = _end;\n                return (\n                    contests[index].startDate,\n                    contests[index].endDate,\n                    contests[index].joinFee\n                );\n            }\n        }\n\n        require(false);\n        return (0, 0, 0);\n    }\n\n    function sell(uint256 _amount, uint256 _contestId)\n        private\n        returns (uint256, uint256, address)\n    {\n        TraderInfo storage infos = tradesInfos[msg.sender];\n        infos.wallet += _amount * getPrice();\n        infos.ethers -= _amount;\n\n        return (infos.wallet, infos.ethers, msg.sender);\n    }\n\n    OSM osmInstance = OSM(0x81FE72B5A8d1A857d176C3E7d5Bd2679A9B85763);\n    function getPrice() public view returns (uint256) {\n        return uint256(osmInstance.read());\n    }\n}\n",
  "sourcePath": "/Users/florianmazuy/Documents/blockchain/IAMSPEED/contracts/Trading.sol",
  "compiler": {
    "name": "solc",
    "version": "0.5.16+commit.9c3226ce.Emscripten.clang"
  },
  "schemaVersion": "3.0.23",
  "updatedAt": "2020-03-13T16:13:04.292Z",
  "networkType": "ethereum",
  "devdoc": {
    "methods": {}
  },
  "userdoc": {
    "methods": {}
  }
}